{
  "contractName": "Payload",
  "abi": [
    {
      "inputs": [
        {
          "internalType": "address payable",
          "name": "to",
          "type": "address"
        }
      ],
      "name": "transferFunds",
      "outputs": [],
      "stateMutability": "nonpayable",
      "type": "function"
    }
  ],
  "bytecode": "0x608060405234801561000f575f80fd5b5061014f8061001d5f395ff3fe608060405234801561000f575f80fd5b5060043610610029575f3560e01c8063e39ff19f1461002d575b5f80fd5b610047600480360381019061004291906100ee565b610049565b005b8073ffffffffffffffffffffffffffffffffffffffff166108fc4790811502906040515f60405180830381858888f1935050505015801561008c573d5f803e3d5ffd5b5050565b5f80fd5b5f73ffffffffffffffffffffffffffffffffffffffff82169050919050565b5f6100bd82610094565b9050919050565b6100cd816100b3565b81146100d7575f80fd5b50565b5f813590506100e8816100c4565b92915050565b5f6020828403121561010357610102610090565b5b5f610110848285016100da565b9150509291505056fea26469706673582212209663f5cda017101164a196ee34a699583ffa93384854df621ec4bb8be3f909d864736f6c63430008150033",
  "immutableReferences": {},
  "source": "pragma solidity ^0.8.0;\n\ncontract Payload {\n    function transferFunds( address payable to) external {\n        to.transfer(address(this).balance);\n    }\n}",
  "sourcePath": "/workspaces/PlenaFinance-Task/Task1/contracts/Payload.sol",
  "compiler": {
    "name": "solc",
    "version": "0.8.21+commit.d9974bed.Emscripten.clang"
  },
  "schemaVersion": "3.4.16",
  "updatedAt": "2024-01-03T14:25:36.776Z",
  "devdoc": {
    "kind": "dev",
    "methods": {},
    "version": 1
  },
  "userdoc": {
    "kind": "user",
    "methods": {},
    "version": 1
  }
}