{
  "contractName": "Test",
  "abi": [
    {
      "inputs": [
        {
          "internalType": "address",
          "name": "_address",
          "type": "address"
        },
        {
          "internalType": "bytes",
          "name": "_payload",
          "type": "bytes"
        }
      ],
      "name": "transferFunds",
      "outputs": [],
      "stateMutability": "nonpayable",
      "type": "function"
    }
  ],
  "bytecode": "0x608060405234801561000f575f80fd5b5061031a8061001d5f395ff3fe608060405234801561000f575f80fd5b5060043610610029575f3560e01c8063474ed2251461002d575b5f80fd5b610047600480360381019061004291906101bb565b610049565b005b5f8373ffffffffffffffffffffffffffffffffffffffff168383604051610071929190610254565b5f60405180830381855af49150503d805f81146100a9576040519150601f19603f3d011682016040523d82523d5f602084013e6100ae565b606091505b50509050806100f2576040517f08c379a00000000000000000000000000000000000000000000000000000000081526004016100e9906102c6565b60405180910390fd5b50505050565b5f80fd5b5f80fd5b5f73ffffffffffffffffffffffffffffffffffffffff82169050919050565b5f61012982610100565b9050919050565b6101398161011f565b8114610143575f80fd5b50565b5f8135905061015481610130565b92915050565b5f80fd5b5f80fd5b5f80fd5b5f8083601f84011261017b5761017a61015a565b5b8235905067ffffffffffffffff8111156101985761019761015e565b5b6020830191508360018202830111156101b4576101b3610162565b5b9250929050565b5f805f604084860312156101d2576101d16100f8565b5b5f6101df86828701610146565b935050602084013567ffffffffffffffff811115610200576101ff6100fc565b5b61020c86828701610166565b92509250509250925092565b5f81905092915050565b828183375f83830152505050565b5f61023b8385610218565b9350610248838584610222565b82840190509392505050565b5f610260828486610230565b91508190509392505050565b5f82825260208201905092915050565b7f466f727761726465642063616c6c206661696c65642e000000000000000000005f82015250565b5f6102b060168361026c565b91506102bb8261027c565b602082019050919050565b5f6020820190508181035f8301526102dd816102a4565b905091905056fea2646970667358221220a11398441577b14703e556977128e3b017bd5e284d9468db133b895ce130f9f464736f6c63430008150033",
  "immutableReferences": {},
  "source": "pragma solidity ^0.8.0;\n\ncontract Test{\n    function transferFunds(address _address, bytes calldata _payload) external{\n        (bool status,) = _address.delegatecall(_payload);\n        require(status, \"Forwarded call failed.\");\n    }\n}",
  "sourcePath": "/workspaces/PlenaFinance-Task/Task1/contracts/test.sol",
  "compiler": {
    "name": "solc",
    "version": "0.8.21+commit.d9974bed.Emscripten.clang"
  },
  "schemaVersion": "3.4.16",
  "updatedAt": "2024-01-03T14:25:36.777Z",
  "devdoc": {
    "kind": "dev",
    "methods": {},
    "version": 1
  },
  "userdoc": {
    "kind": "user",
    "methods": {},
    "version": 1
  }
}